:10025100021E000002200000021C00000222000019
:100261000A0AC0F9A4B0999282F880900814010298
:060271000408102040808B
:10027800E4FDFCC3ED9FEC9E5015E4FBFA0BBB00BC
:0F028800010AEB64794A70F50DBD00010C80E4AA
:010297002244
:0C02C800E5A0541F44C0F5A053A01F2265
:0C02D400E5A0541F44E0F5A053A01F2239
:080224008E2A8F2B8C2C8D2DEE
:10022C007F017E00E4FBFAC3EB952DE52C6480F88E
:10023C00EA648098500EAC2AAD2B1201110BBB0056
:04024C00010A80E340
:01025000228B
:06009A007B027A007E00EB
:0400A0008C248D25FA
:1000A400EF24FFF529EE34FFF5288A268B27D3E5C4
:1000B400279400E5269400405374142529F8E6F5A6
:1000C400801202C8E52724FFFDE52634FFFC7F0AE1
:1000D4007E00120224AC24AD25CFCDCFCECCCE12DF
:1000E40001237C007D0A120123740A2DF8E6F580B1
:1000F4001202D40529E52970020528AF23AE221285
:0C0104000278E527152770A6152680A2BA
:0101100022CC
:10029800BD2D1774132FF8E6F5801202C87580BFBC
:0B02A8001202D4AF23AE221202782213
:1002B3005389F0438901758A18758CFCC28DD28CE1
:0502C300D2A9D2AF2218
:1001DE007580FFE5A0541F4480F5A053A01F1202A6
:1001EE00B3AD1FAC1E7F0112009A7D2D7F037E00E2
:1001FE00120298AD21AC207F0412009A7D2D7F064D
:10020E007E001202987B027A00AD1DAC1C7F077E29
:06021E00001200A080CBDD
:03000B0002017877
:04017800C0E0C0D053
:10017C00758A18758CFCC3E50994E8E5089403406E
:10018C0044750800750900051DE51D7002051C6409
:10019C003C451C700E0521E52170020520751C00E4
:1001AC00751D00E521643C4520700E051FE51F7090
:1001BC0002051E752000752100E51F6418451E7090
:0D01CC0004F51EF51F0509E5097002050880
:0501D900D0D0D0E0329F
:0300000002000EED
:0C000E00787FE4F6D8FD75812D020055C6
:10011100EF8DF0A4A8F0CF8CF0A428CE8DF0A42E02
:02012100FE22BC
:10012300BC000BBE0029EF8DF084FFADF022E4CCC0
:10013300F875F008EF2FFFEE33FEEC33FCEE9DEC89
:10014300984005FCEE9DFE0FD5F0E9E4CEFD22EDCF
:10015300F8F5F0EE8420D21CFEADF075F008EF2F19
:10016300FFED33FD4007985006D5F0F222C398FD0A
:050173000FD5F0EA22A7
:10001A000201DEE493A3F8E493A34003F68001F21D
:10002A0008DFF48029E493A3F85407240CC8C333E7
:10003A00C4540F4420C8834004F456800146F6DFB6
:10004A00E4800B0102040810204080900251E47EF3
:10005A00019360BCA3FF543F30E509541FFEE493AB
:10006A00A360010ECF54C025E060A840B8E493A372
:10007A00FAE493A3F8E493A3C8C582C8CAC583CA9D
:10008A00F0A3C8C582C8CAC583CADFE9DEE780BE55
:010277000086
:00000001FF
