:1001540048656C6C6F2044722E00416C6C204C45D9
:100164004473206973204F464600416C6C204C4513
:100174004473206973204F4E004C4544203120695C
:1001840073204F4E004C45442031206973204F4664
:1001940046004C45442032206973204F4E004C45A4
:1001A400442032206973204F4646004C4544203396
:1001B400206973204F4E004C45442033206973203E
:1001C4004F4646004C45442034206973204F4E006E
:1001D4004C45442034206973204F4646004C454426
:1001E4002035206973204F4E004C4544203520694A
:1001F40073204F4646004C45442036206973204FF7
:100204004E004C45442036206973204F4646004C2E
:1002140045442037206973204F4E004C4544203715
:10022400206973204F4646004C45442038206973AA
:10023400204F4E004C45442038206973204F4646D9
:1002440000496E76616C696420436F6D6D616E6404
:0102540000A9
:05000B000308FF015491
:1003910053877F759850538EBF538EFE53890F43F9
:1003A1008920758BE8758DE8C2ABD28ED2AFD2AC05
:0103B1002229
:080003008F993099FDC299228A
:10036C008B0B8A0C890DAB0BAA0CA90D12032D60FB
:10037C0013050DE50D7002050C14F912032DFF1277
:05038C00000380E222E5
:10002600750B00750C01EE600302014AEF120346E0
:10003600007000008A0100A20200BA0300D2040088
:10004600EA05010206011A0701320800961000AE01
:100056002000C63000DE4000F650010E600126701A
:10006600013E80007D990000014A7580FF7508FFFA
:10007600750901750A5E22E4F5807508FF750901A8
:10008600750A6E22C2807508FF750901750A7D2200
:10009600D2807508FF750901750A8922C281750823
:1000A600FF750901750A9622D2817508FF75090147
:1000B600750AA222C2827508FF750901750AAF2268
:1000C600D2827508FF750901750ABB22C2837508BD
:1000D600FF750901750AC822D2837508FF750901E3
:1000E600750AD422C2847508FF750901750AE122D2
:1000F600D2847508FF750901750AED22C285750857
:10010600FF750901750AFA22D2857508FF7509027D
:10011600750A0622C2867508FF750902750A13223A
:10012600D2867508FF750902750A1F22C2877508EF
:10013600FF750902750A2C22D2877508FF75090218
:0D014600750A38227508FF750902750A4513
:010153002289
:030023000202E1F5
:1002E100C0E0C083C082C0D075D000C000C001C0D2
:1002F10002C003C006C00730981DAF997E001200EE
:1003010026E5A0541F4480F5A053A01FAB08AA09FD
:10031100A90A12036CC298D007D006D003D002D02C
:0C03210001D000D0D0D082D083D0E032D8
:0500110012039180FEC6
:03000000020255A4
:0C025500787FE4F6D8FD75810D02029C54
:10032D00BB010689828A83E0225002E722BBFE02CE
:09033D00E32289828A83E4932201
:10034600D083D082F8E4937012740193700DA3A346
:1003560093F8740193F5828883E47374029368605A
:06036600EFA3A3A380DF5A
:10026100020011E493A3F8E493A34003F68001F2A2
:1002710008DFF48029E493A3F85407240CC8C3339E
:10028100C4540F4420C8834004F456800146F6DF6D
:10029100E4800B010204081020408090000BE47EF2
:1002A100019360BCA3FF543F30E509541FFEE49362
:1002B100A360010ECF54C025E060A840B8E493A329
:1002C100FAE493A3F8E493A3C8C582C8CAC583CA54
:1002D100F0A3C8C582C8CAC583CADFE9DEE780BE0C
:0100100000EF
:00000001FF
