:10010600020A00000E0CFEFDFBF7EFDFBF7FBFDF2C
:04011600EFF7FBFD07
:1000DA005389F0438901758AB0758C3CC28DD28CE4
:0700EA00D2A9D2AFC2B92276
:1000F1001200DAE5A0541F4480F5A0740C250BF81A
:05010100E6F58080EE30
:03000B0002009A56
:04009A00C0E0C0D032
:10009E00758AB0758C3C0509E50970020508C3E543
:1000AE0009940AE5089400401E75080075090005BC
:1000BE000BE50B7002050A940EE50A940040DF75FD
:0700CE000A00750B0080D74A
:0500D500D0D0D0E032A4
:0300000002000EED
:0C000E00787FE4F6D8FD758119020055DA
:10001A000200F1E493A3F8E493A34003F68001F20B
:10002A0008DFF48029E493A3F85407240CC8C333E7
:10003A00C4540F4420C8834004F456800146F6DFB6
:10004A00E4800B0102040810204080900106E47E3F
:10005A00019360BCA3FF543F30E509541FFEE493AB
:10006A00A360010ECF54C025E060A840B8E493A372
:10007A00FAE493A3F8E493A3C8C582C8CAC583CA9D
:10008A00F0A3C8C582C8CAC583CADFE9DEE780BE55
:01011A0000E4
:00000001FF
