:10038D0075660075670075680012026E8B668A6768
:10039D0089681201E8AB66AA67A9681200038B662B
:0903AD008A6789681202ED80E9FB
:10034B0002640000026200720208020220204200D6
:10035B00F900A400B000FF00990092008200FF009A
:10036B00F80080009000FF00C000C000FF00FF10ED
:10037B000A000100020004000800100020004000E9
:01038B0080F1
:10026E00751A00751BFF751F007520FF752400752C
:10027E0025FF752900752AFF752E00752FFF753322
:10028E00007534FF7538007539FF753D00753EFFFA
:10029E00751C00751D00751E1F75210075220075D9
:1002AE002324752600752700752829752B00752CBB
:1002BE0000752D2E75300075310075323375350091
:1002CE00753600753738753A00753B00753C3D75CF
:0E02DE003F0075400075411A7B007A00791AC6
:0102EC0022EF
:1003B600E4FDFCC3ED9FEC9E5015E4FBFA0BBB007D
:0F03C600010AEB64784A70F50DBD00010C80E46C
:0103D5002205
:0C03D600EC8DF01200E690000212010510
:0103E20022F8
:1002ED008B6B8A6C896DE4F569F56AE56A25E02406
:1002FD000AF808E6F580E5A0541F44C0F5A053A008
:10030D001FAB6BAA6CA96D1200BBF580E5A0541F45
:10031D0044E0F5A053A01F9000021201058B6B8ADB
:10032D006C896D7F0A7E001203B6056AE56A70025C
:0D033D000569D39407E5696480948040AEA3
:01034A002290
:1001E800E5B054C0440FF5B053C0EBE4FFFE120372
:1001F800B620B007E4F562F563801F20B108756288
:1002080000756301801420B208756200756302806E
:100218000920B351756200756303E5B054C04430DA
:10022800F5B0E5C054EB4414F5C020B40B30B4FD70
:10023800750800750903802720B50B30B5FD7508D2
:1002480000750902801920C20B30C2FD75080075BF
:100258000901800B20C40E30C4FDE4F508F50975CA
:05026800640075650152
:01026D00226E
:060003008B698A6A896B1B
:100009008B6C8A6D896EE4FFFEE56545647001229B
:10001900E563640345627056E50945086008E5092A
:100029006402450870487E007F01AB6CAA6DA96E19
:10003900E475F0FF1200E6AB6CAA6DA96E900002A0
:100049001201058B6C8A6D896E0FBF00010EEF647A
:10005900084E70D6E5094508AB6CAA6DA96E700506
:1000690075F0C08004E475F0FF1200E6803DD3E529
:10007900639403E56294005032E5099403E508941A
:10008900005028E56375F008A42442F8E50925E045
:1000990028F8E6FC08E6FDAB69AA6AA96B1203D643
:1000A9008B698A6A896BE4F564F565AB69AA6AA903
:0100B9006BDB
:0100BA002223
:0300000002015C9E
:0C015C00787FE4F6D8FD75816E0201A3E7
:1000BB00BB010A89828A83E0F5F0A3E02250068710
:1000CB00F009E71922BBFE07E3F5F009E3192289D2
:0B00DB00828A83E493F5F07401932205
:1000E600BB010A89828A83F0E5F0A3F0225006F765
:0F00F60009A7F01922BBFE06F3E5F009F3192262
:10010500BB010DE58229F582E5833AF58302013EBF
:100115005007E92582F8020135BBFE07E92582F87B
:10012500020147E58229F582E5833AF5830201500C
:1001680002038DE493A3F8E493A34003F68001F21D
:1001780008DFF48029E493A3F85407240CC8C33398
:10018800C4540F4420C8834004F456800146F6DF67
:10019800E4800B010204081020408090034BE47EA9
:1001A800019360BCA3FF543F30E509541FFEE4935C
:1001B800A360010ECF54C025E060A840B8E493A323
:1001C800FAE493A3F8E493A3C8C582C8CAC583CA4E
:1001D800F0A3C8C582C8CAC583CADFE9DEE780BE06
:01038C000070
:09013500E6FB08E6FA08E6F922EF
:09013E00E0FBA3E0FAA3E0F922C2
:09014700E2FB08E2FA08E2F922E9
:0C015000E493FB740193FA740293F9220B
:00000001FF
