:0C025700022A0000022C00000228000017
:1002B9005389F0438901758A18758CFCC28DD28CDB
:0502C900D2A9D2AF2212
:1001D8007580FFE5A0541F4480F5A053A01F1202AC
:1001E800B97B027A00AD2BAC2A7F017E0012009AFF
:1001F8007D2D7F037E0012029E7B027A00AD2DAC1E
:100208002C7F047E0012009A7D2D7F067E0012024C
:100218009E7B027A00AD29AC287F077E0012009AE7
:0202280080BF95
:03000B000201727D
:04017200C0E0C0D059
:10017600758A18758CFCC3E52794E8E52694034038
:10018600447526007527000529E5297002052864AF
:100196003C4528700E052DE52D7002052C752800AE
:1001A600752900E52D643C452C700E052BE52B705A
:1001B60002052A752C00752D00E52B6418452A705A
:0D01C60004F52AF52B0527E5277002052614
:0501D300D0D0D0E032A5
:10026300021A00050A08C0F9A4B0999282F8809096
:0A0273000812010204081020408068
:10027E00E4FDFCC3ED9FEC9E5015E4FBFA0BBB00B6
:0F028E00010AEB64794A70F50DBD00010C80E4A4
:01029D00223E
:0C02CE00E5A0541F44C0F5A053A01F225F
:0C02DA00E5A0541F44E0F5A053A01F2233
:08022A008E228F238C248D2508
:100232007F017E00E4FBFAC3EB9525E5246480F898
:10024200EA648098500EAC22AD2312010B0BBB0066
:04025200010A80E33A
:010256002285
:04009A008C1C8D1D10
:10009E00EF24FFF521EE34FFF5208A1E8B1FD3E5EA
:1000AE001F9400E51E9400405374122521F8E6F5C6
:1000BE00801202CEE51F24FFFDE51E34FFFC7F0AF1
:1000CE007E0012022AAC1CAD1DCFCDCFCECCCE12EF
:1000DE00011D7C007D0A12011D74082DF8E6F580C5
:1000EE001202DA0521E52170020520AF1BAE1A12AD
:0C00FE00027EE51F151F70A6151E80A2D3
:01010A0022D2
:10029E00BD2D1774112FF8E6F5801202CE7580BFB2
:0B02AE001202DAAF1BAE1A12027E2211
:0300000002000EED
:0C000E00787FE4F6D8FD75812D020055C6
:10010B00EF8DF0A4A8F0CF8CF0A428CE8DF0A42E08
:02011B00FE22C2
:10011D00BC000BBE0029EF8DF084FFADF022E4CCC6
:10012D00F875F008EF2FFFEE33FEEC33FCEE9DEC8F
:10013D00984005FCEE9DFE0FD5F0E9E4CEFD22EDD5
:10014D00F8F5F0EE8420D21CFEADF075F008EF2F1F
:10015D00FFED33FD4007985006D5F0F222C398FD10
:05016D000FD5F0EA22AD
:10001A000201D8E493A3F8E493A34003F68001F223
:10002A0008DFF48029E493A3F85407240CC8C333E7
:10003A00C4540F4420C8834004F456800146F6DFB6
:10004A00E4800B0102040810204080900257E47EED
:10005A00019360BCA3FF543F30E509541FFEE493AB
:10006A00A360010ECF54C025E060A840B8E493A372
:10007A00FAE493A3F8E493A3C8C582C8CAC583CA9D
:10008A00F0A3C8C582C8CAC583CADFE9DEE780BE55
:01027D000080
:00000001FF
